{
  "_format": "hh-sol-artifact-1",
  "contractName": "ERC20",
  "sourceName": "contracts/ERC20.sol",
  "abi": [
    {
      "inputs": [],
      "name": "decimals",
      "outputs": [
        {
          "internalType": "uint8",
          "name": "",
          "type": "uint8"
        }
      ],
      "stateMutability": "pure",
      "type": "function"
    },
    {
      "inputs": [
        {
          "internalType": "address",
          "name": "user",
          "type": "address"
        }
      ],
      "name": "getBalanceOf",
      "outputs": [
        {
          "internalType": "uint256",
          "name": "",
          "type": "uint256"
        }
      ],
      "stateMutability": "view",
      "type": "function"
    },
    {
      "inputs": [],
      "name": "getTotalSupply",
      "outputs": [
        {
          "internalType": "uint256",
          "name": "",
          "type": "uint256"
        }
      ],
      "stateMutability": "view",
      "type": "function"
    },
    {
      "inputs": [],
      "name": "getVersion",
      "outputs": [
        {
          "internalType": "string",
          "name": "",
          "type": "string"
        }
      ],
      "stateMutability": "view",
      "type": "function"
    },
    {
      "inputs": [
        {
          "internalType": "string",
          "name": "_Name",
          "type": "string"
        },
        {
          "internalType": "string",
          "name": "_Symbol",
          "type": "string"
        },
        {
          "internalType": "string",
          "name": "_Version",
          "type": "string"
        },
        {
          "internalType": "address",
          "name": "deployer",
          "type": "address"
        },
        {
          "internalType": "uint256",
          "name": "amount",
          "type": "uint256"
        }
      ],
      "name": "initialization",
      "outputs": [],
      "stateMutability": "nonpayable",
      "type": "function"
    },
    {
      "inputs": [],
      "name": "name",
      "outputs": [
        {
          "internalType": "string",
          "name": "",
          "type": "string"
        }
      ],
      "stateMutability": "view",
      "type": "function"
    },
    {
      "inputs": [],
      "name": "symbol",
      "outputs": [
        {
          "internalType": "string",
          "name": "",
          "type": "string"
        }
      ],
      "stateMutability": "view",
      "type": "function"
    },
    {
      "inputs": [
        {
          "internalType": "address",
          "name": "to",
          "type": "address"
        },
        {
          "internalType": "uint256",
          "name": "amount",
          "type": "uint256"
        }
      ],
      "name": "transfer",
      "outputs": [
        {
          "internalType": "bool",
          "name": "",
          "type": "bool"
        }
      ],
      "stateMutability": "nonpayable",
      "type": "function"
    }
  ],
  "bytecode": "0x608060405234801561001057600080fd5b50610d23806100206000396000f3fe608060405234801561001057600080fd5b50600436106100885760003560e01c80639b96eece1161005b5780639b96eece14610105578063a9059cbb14610135578063c4e41b2214610165578063eb49b61d1461018357610088565b806306fdde031461008d5780630d8e6e2c146100ab578063313ce567146100c957806395d89b41146100e7575b600080fd5b61009561019f565b6040516100a2919061093b565b60405180910390f35b6100b3610231565b6040516100c0919061093b565b60405180910390f35b6100d16102c3565b6040516100de91906109b8565b60405180910390f35b6100ef6102cc565b6040516100fc919061093b565b60405180910390f35b61011f600480360381019061011a9190610738565b61035e565b60405161012c919061099d565b60405180910390f35b61014f600480360381019061014a9190610765565b6103a6565b60405161015c9190610920565b60405180910390f35b61016d610540565b60405161017a919061099d565b60405180910390f35b61019d600480360381019061019891906107a5565b61054a565b005b6060600580546101ae90610b32565b80601f01602080910402602001604051908101604052809291908181526020018280546101da90610b32565b80156102275780601f106101fc57610100808354040283529160200191610227565b820191906000526020600020905b81548152906001019060200180831161020a57829003601f168201915b5050505050905090565b60606007805461024090610b32565b80601f016020809104026020016040519081016040528092919081815260200182805461026c90610b32565b80156102b95780601f1061028e576101008083540402835291602001916102b9565b820191906000526020600020905b81548152906001019060200180831161029c57829003601f168201915b5050505050905090565b60006012905090565b6060600680546102db90610b32565b80601f016020809104026020016040519081016040528092919081815260200182805461030790610b32565b80156103545780601f1061032957610100808354040283529160200191610354565b820191906000526020600020905b81548152906001019060200180831161033757829003601f168201915b5050505050905090565b60008060008373ffffffffffffffffffffffffffffffffffffffff1673ffffffffffffffffffffffffffffffffffffffff168152602001908152602001600020549050919050565b60008073ffffffffffffffffffffffffffffffffffffffff168373ffffffffffffffffffffffffffffffffffffffff161415610417576040517f08c379a000000000000000000000000000000000000000000000000000000000815260040161040e9061095d565b60405180910390fd5b60008060003373ffffffffffffffffffffffffffffffffffffffff1673ffffffffffffffffffffffffffffffffffffffff1681526020019081526020016000205490508281101561049d576040517f08c379a00000000000000000000000000000000000000000000000000000000081526004016104949061097d565b60405180910390fd5b826000803373ffffffffffffffffffffffffffffffffffffffff1673ffffffffffffffffffffffffffffffffffffffff16815260200190815260200160002060008282540392505081905550826000808673ffffffffffffffffffffffffffffffffffffffff1673ffffffffffffffffffffffffffffffffffffffff16815260200190815260200160002060008282540192505081905550600191505092915050565b6000600254905090565b84600590805190602001906105609291906105fb565b5083600690805190602001906105779291906105fb565b50826007908051906020019061058e9291906105fb565b5080600260008282546105a19190610a45565b92505081905550806000808473ffffffffffffffffffffffffffffffffffffffff1673ffffffffffffffffffffffffffffffffffffffff168152602001908152602001600020600082825401925050819055505050505050565b82805461060790610b32565b90600052602060002090601f0160209004810192826106295760008555610670565b82601f1061064257805160ff1916838001178555610670565b82800160010185558215610670579182015b8281111561066f578251825591602001919060010190610654565b5b50905061067d9190610681565b5090565b5b8082111561069a576000816000905550600101610682565b5090565b60006106b16106ac846109f8565b6109d3565b9050828152602081018484840111156106cd576106cc610c27565b5b6106d8848285610af0565b509392505050565b6000813590506106ef81610cbf565b92915050565b600082601f83011261070a57610709610c22565b5b813561071a84826020860161069e565b91505092915050565b60008135905061073281610cd6565b92915050565b60006020828403121561074e5761074d610c31565b5b600061075c848285016106e0565b91505092915050565b6000806040838503121561077c5761077b610c31565b5b600061078a858286016106e0565b925050602061079b85828601610723565b9150509250929050565b600080600080600060a086880312156107c1576107c0610c31565b5b600086013567ffffffffffffffff8111156107df576107de610c2c565b5b6107eb888289016106f5565b955050602086013567ffffffffffffffff81111561080c5761080b610c2c565b5b610818888289016106f5565b945050604086013567ffffffffffffffff81111561083957610838610c2c565b5b610845888289016106f5565b9350506060610856888289016106e0565b925050608061086788828901610723565b9150509295509295909350565b61087d81610aad565b82525050565b600061088e82610a29565b6108988185610a34565b93506108a8818560208601610aff565b6108b181610c36565b840191505092915050565b60006108c9602383610a34565b91506108d482610c47565b604082019050919050565b60006108ec601483610a34565b91506108f782610c96565b602082019050919050565b61090b81610ad9565b82525050565b61091a81610ae3565b82525050565b60006020820190506109356000830184610874565b92915050565b600060208201905081810360008301526109558184610883565b905092915050565b60006020820190508181036000830152610976816108bc565b9050919050565b60006020820190508181036000830152610996816108df565b9050919050565b60006020820190506109b26000830184610902565b92915050565b60006020820190506109cd6000830184610911565b92915050565b60006109dd6109ee565b90506109e98282610b64565b919050565b6000604051905090565b600067ffffffffffffffff821115610a1357610a12610bf3565b5b610a1c82610c36565b9050602081019050919050565b600081519050919050565b600082825260208201905092915050565b6000610a5082610ad9565b9150610a5b83610ad9565b9250827fffffffffffffffffffffffffffffffffffffffffffffffffffffffffffffffff03821115610a9057610a8f610b95565b5b828201905092915050565b6000610aa682610ab9565b9050919050565b60008115159050919050565b600073ffffffffffffffffffffffffffffffffffffffff82169050919050565b6000819050919050565b600060ff82169050919050565b82818337600083830152505050565b60005b83811015610b1d578082015181840152602081019050610b02565b83811115610b2c576000848401525b50505050565b60006002820490506001821680610b4a57607f821691505b60208210811415610b5e57610b5d610bc4565b5b50919050565b610b6d82610c36565b810181811067ffffffffffffffff82111715610b8c57610b8b610bf3565b5b80604052505050565b7f4e487b7100000000000000000000000000000000000000000000000000000000600052601160045260246000fd5b7f4e487b7100000000000000000000000000000000000000000000000000000000600052602260045260246000fd5b7f4e487b7100000000000000000000000000000000000000000000000000000000600052604160045260246000fd5b600080fd5b600080fd5b600080fd5b600080fd5b6000601f19601f8301169050919050565b7f45524332303a207472616e7366657220746f20746865207a65726f206164647260008201527f6573730000000000000000000000000000000000000000000000000000000000602082015250565b7f496e73756666696369656e742042616c616e6365000000000000000000000000600082015250565b610cc881610a9b565b8114610cd357600080fd5b50565b610cdf81610ad9565b8114610cea57600080fd5b5056fea2646970667358221220b3865dc6b88d318c7856f35a00755b8cfa7365e0242e36fcbac2f8f5acdd39b864736f6c63430008060033",
  "linkReferences": {},
  "deployedLinkReferences": {}
}