{
  "_format": "hh-sol-artifact-1",
  "contractName": "ERC20V2",
  "sourceName": "contracts/ERC20V2.sol",
  "abi": [
    {
      "inputs": [
        {
          "internalType": "address",
          "name": "_owner",
          "type": "address"
        },
        {
          "internalType": "address",
          "name": "spender",
          "type": "address"
        }
      ],
      "name": "allowances",
      "outputs": [
        {
          "internalType": "uint256",
          "name": "",
          "type": "uint256"
        }
      ],
      "stateMutability": "view",
      "type": "function"
    },
    {
      "inputs": [
        {
          "internalType": "address",
          "name": "spender",
          "type": "address"
        },
        {
          "internalType": "uint256",
          "name": "amount",
          "type": "uint256"
        }
      ],
      "name": "approve",
      "outputs": [
        {
          "internalType": "bool",
          "name": "",
          "type": "bool"
        }
      ],
      "stateMutability": "nonpayable",
      "type": "function"
    },
    {
      "inputs": [
        {
          "internalType": "address",
          "name": "account",
          "type": "address"
        },
        {
          "internalType": "uint256",
          "name": "amount",
          "type": "uint256"
        }
      ],
      "name": "burn",
      "outputs": [],
      "stateMutability": "nonpayable",
      "type": "function"
    },
    {
      "inputs": [],
      "name": "decimals",
      "outputs": [
        {
          "internalType": "uint8",
          "name": "",
          "type": "uint8"
        }
      ],
      "stateMutability": "pure",
      "type": "function"
    },
    {
      "inputs": [
        {
          "internalType": "address",
          "name": "spender",
          "type": "address"
        },
        {
          "internalType": "uint256",
          "name": "subtractedValue",
          "type": "uint256"
        }
      ],
      "name": "decreaseAllowance",
      "outputs": [
        {
          "internalType": "bool",
          "name": "",
          "type": "bool"
        }
      ],
      "stateMutability": "nonpayable",
      "type": "function"
    },
    {
      "inputs": [
        {
          "internalType": "address",
          "name": "user",
          "type": "address"
        }
      ],
      "name": "getBalanceOf",
      "outputs": [
        {
          "internalType": "uint256",
          "name": "",
          "type": "uint256"
        }
      ],
      "stateMutability": "view",
      "type": "function"
    },
    {
      "inputs": [],
      "name": "getTotalSupply",
      "outputs": [
        {
          "internalType": "uint256",
          "name": "",
          "type": "uint256"
        }
      ],
      "stateMutability": "view",
      "type": "function"
    },
    {
      "inputs": [],
      "name": "getVersion",
      "outputs": [
        {
          "internalType": "string",
          "name": "",
          "type": "string"
        }
      ],
      "stateMutability": "view",
      "type": "function"
    },
    {
      "inputs": [
        {
          "internalType": "address",
          "name": "spender",
          "type": "address"
        },
        {
          "internalType": "uint256",
          "name": "addedValue",
          "type": "uint256"
        }
      ],
      "name": "increaseAllowance",
      "outputs": [
        {
          "internalType": "bool",
          "name": "",
          "type": "bool"
        }
      ],
      "stateMutability": "nonpayable",
      "type": "function"
    },
    {
      "inputs": [
        {
          "internalType": "address",
          "name": "account",
          "type": "address"
        },
        {
          "internalType": "uint256",
          "name": "amount",
          "type": "uint256"
        }
      ],
      "name": "mint",
      "outputs": [],
      "stateMutability": "nonpayable",
      "type": "function"
    },
    {
      "inputs": [],
      "name": "name",
      "outputs": [
        {
          "internalType": "string",
          "name": "",
          "type": "string"
        }
      ],
      "stateMutability": "view",
      "type": "function"
    },
    {
      "inputs": [
        {
          "internalType": "address",
          "name": "_owner",
          "type": "address"
        }
      ],
      "name": "setOwner",
      "outputs": [],
      "stateMutability": "nonpayable",
      "type": "function"
    },
    {
      "inputs": [
        {
          "internalType": "string",
          "name": "version",
          "type": "string"
        }
      ],
      "name": "setVersion",
      "outputs": [],
      "stateMutability": "nonpayable",
      "type": "function"
    },
    {
      "inputs": [],
      "name": "symbol",
      "outputs": [
        {
          "internalType": "string",
          "name": "",
          "type": "string"
        }
      ],
      "stateMutability": "view",
      "type": "function"
    },
    {
      "inputs": [
        {
          "internalType": "address",
          "name": "to",
          "type": "address"
        },
        {
          "internalType": "uint256",
          "name": "amount",
          "type": "uint256"
        }
      ],
      "name": "transfer",
      "outputs": [
        {
          "internalType": "bool",
          "name": "",
          "type": "bool"
        }
      ],
      "stateMutability": "nonpayable",
      "type": "function"
    },
    {
      "inputs": [
        {
          "internalType": "address",
          "name": "from",
          "type": "address"
        },
        {
          "internalType": "address",
          "name": "to",
          "type": "address"
        },
        {
          "internalType": "uint256",
          "name": "amount",
          "type": "uint256"
        }
      ],
      "name": "transferFrom",
      "outputs": [
        {
          "internalType": "bool",
          "name": "",
          "type": "bool"
        }
      ],
      "stateMutability": "nonpayable",
      "type": "function"
    }
  ],
  "bytecode": "0x608060405234801561001057600080fd5b50611d89806100206000396000f3fe608060405234801561001057600080fd5b50600436106101005760003560e01c806355b6ed5c116100975780639dc29fac116100665780639dc29fac146102c1578063a457c2d7146102dd578063a9059cbb1461030d578063c4e41b221461033d57610100565b806355b6ed5c14610227578063788bc78c1461025757806395d89b41146102735780639b96eece1461029157610100565b806323b872dd116100d357806323b872dd1461018d578063313ce567146101bd57806339509351146101db57806340c10f191461020b57610100565b806306fdde0314610105578063095ea7b3146101235780630d8e6e2c1461015357806313af403514610171575b600080fd5b61010d61035b565b60405161011a91906115bd565b60405180910390f35b61013d6004803603810190610138919061130f565b6103ed565b60405161014a91906115a2565b60405180910390f35b61015b610404565b60405161016891906115bd565b60405180910390f35b61018b6004803603810190610186919061124f565b610496565b005b6101a760048036038101906101a291906112bc565b610607565b6040516101b491906115a2565b60405180910390f35b6101c561062f565b6040516101d2919061177a565b60405180910390f35b6101f560048036038101906101f0919061130f565b610638565b60405161020291906115a2565b60405180910390f35b6102256004803603810190610220919061130f565b610668565b005b610241600480360381019061023c919061127c565b610741565b60405161024e919061175f565b60405180910390f35b610271600480360381019061026c919061134f565b6107c8565b005b61027b6108e5565b60405161028891906115bd565b60405180910390f35b6102ab60048036038101906102a6919061124f565b610977565b6040516102b8919061175f565b60405180910390f35b6102db60048036038101906102d6919061130f565b6109bf565b005b6102f760048036038101906102f2919061130f565b610b0f565b60405161030491906115a2565b60405180910390f35b6103276004803603810190610322919061130f565b610b7f565b60405161033491906115a2565b60405180910390f35b610345610d19565b604051610352919061175f565b60405180910390f35b60606005805461036a906118f4565b80601f0160208091040260200160405190810160405280929190818152602001828054610396906118f4565b80156103e35780601f106103b8576101008083540402835291602001916103e3565b820191906000526020600020905b8154815290600101906020018083116103c657829003601f168201915b5050505050905090565b60006103fa338484610d23565b6001905092915050565b606060078054610413906118f4565b80601f016020809104026020016040519081016040528092919081815260200182805461043f906118f4565b801561048c5780601f106104615761010080835404028352916020019161048c565b820191906000526020600020905b81548152906001019060200180831161046f57829003601f168201915b5050505050905090565b600073ffffffffffffffffffffffffffffffffffffffff16600360009054906101000a900473ffffffffffffffffffffffffffffffffffffffff1673ffffffffffffffffffffffffffffffffffffffff16146105c2573373ffffffffffffffffffffffffffffffffffffffff16600360009054906101000a900473ffffffffffffffffffffffffffffffffffffffff1673ffffffffffffffffffffffffffffffffffffffff161461057c576040517f08c379a00000000000000000000000000000000000000000000000000000000081526004016105739061167f565b60405180910390fd5b80600360006101000a81548173ffffffffffffffffffffffffffffffffffffffff021916908373ffffffffffffffffffffffffffffffffffffffff160217905550610604565b80600360006101000a81548173ffffffffffffffffffffffffffffffffffffffff021916908373ffffffffffffffffffffffffffffffffffffffff1602179055505b50565b600080339050610618858285610e89565b610623858585610f15565b60019150509392505050565b60006012905090565b60008033905061065d81858561064e8589610741565b6106589190611807565b610d23565b600191505092915050565b600073ffffffffffffffffffffffffffffffffffffffff168273ffffffffffffffffffffffffffffffffffffffff1614156106d8576040517f08c379a00000000000000000000000000000000000000000000000000000000081526004016106cf9061173f565b60405180910390fd5b80600260008282546106ea9190611807565b92505081905550806000808473ffffffffffffffffffffffffffffffffffffffff1673ffffffffffffffffffffffffffffffffffffffff168152602001908152602001600020600082825401925050819055505050565b6000600160008473ffffffffffffffffffffffffffffffffffffffff1673ffffffffffffffffffffffffffffffffffffffff16815260200190815260200160002060008373ffffffffffffffffffffffffffffffffffffffff1673ffffffffffffffffffffffffffffffffffffffff16815260200190815260200160002054905092915050565b600073ffffffffffffffffffffffffffffffffffffffff16600360009054906101000a900473ffffffffffffffffffffffffffffffffffffffff1673ffffffffffffffffffffffffffffffffffffffff16146108ca573373ffffffffffffffffffffffffffffffffffffffff16600360009054906101000a900473ffffffffffffffffffffffffffffffffffffffff1673ffffffffffffffffffffffffffffffffffffffff16146108ae576040517f08c379a00000000000000000000000000000000000000000000000000000000081526004016108a59061167f565b60405180910390fd5b80600790805190602001906108c4929190611112565b506108e2565b80600790805190602001906108e0929190611112565b505b50565b6060600680546108f4906118f4565b80601f0160208091040260200160405190810160405280929190818152602001828054610920906118f4565b801561096d5780601f106109425761010080835404028352916020019161096d565b820191906000526020600020905b81548152906001019060200180831161095057829003601f168201915b5050505050905090565b60008060008373ffffffffffffffffffffffffffffffffffffffff1673ffffffffffffffffffffffffffffffffffffffff168152602001908152602001600020549050919050565b600073ffffffffffffffffffffffffffffffffffffffff168273ffffffffffffffffffffffffffffffffffffffff161415610a2f576040517f08c379a0000000000000000000000000000000000000000000000000000000008152600401610a269061169f565b60405180910390fd5b60008060008473ffffffffffffffffffffffffffffffffffffffff1673ffffffffffffffffffffffffffffffffffffffff16815260200190815260200160002054905081811015610ab5576040517f08c379a0000000000000000000000000000000000000000000000000000000008152600401610aac906115ff565b60405180910390fd5b8181036000808573ffffffffffffffffffffffffffffffffffffffff1673ffffffffffffffffffffffffffffffffffffffff1681526020019081526020016000208190555081600260008282540392505081905550505050565b6000803390506000610b218286610741565b905083811015610b66576040517f08c379a0000000000000000000000000000000000000000000000000000000008152600401610b5d9061171f565b60405180910390fd5b610b738286868403610d23565b60019250505092915050565b60008073ffffffffffffffffffffffffffffffffffffffff168373ffffffffffffffffffffffffffffffffffffffff161415610bf0576040517f08c379a0000000000000000000000000000000000000000000000000000000008152600401610be7906115df565b60405180910390fd5b60008060003373ffffffffffffffffffffffffffffffffffffffff1673ffffffffffffffffffffffffffffffffffffffff16815260200190815260200160002054905082811015610c76576040517f08c379a0000000000000000000000000000000000000000000000000000000008152600401610c6d906116bf565b60405180910390fd5b826000803373ffffffffffffffffffffffffffffffffffffffff1673ffffffffffffffffffffffffffffffffffffffff16815260200190815260200160002060008282540392505081905550826000808673ffffffffffffffffffffffffffffffffffffffff1673ffffffffffffffffffffffffffffffffffffffff16815260200190815260200160002060008282540192505081905550600191505092915050565b6000600254905090565b600073ffffffffffffffffffffffffffffffffffffffff168373ffffffffffffffffffffffffffffffffffffffff161415610d93576040517f08c379a0000000000000000000000000000000000000000000000000000000008152600401610d8a906116ff565b60405180910390fd5b600073ffffffffffffffffffffffffffffffffffffffff168273ffffffffffffffffffffffffffffffffffffffff161415610e03576040517f08c379a0000000000000000000000000000000000000000000000000000000008152600401610dfa9061161f565b60405180910390fd5b80600160008573ffffffffffffffffffffffffffffffffffffffff1673ffffffffffffffffffffffffffffffffffffffff16815260200190815260200160002060008473ffffffffffffffffffffffffffffffffffffffff1673ffffffffffffffffffffffffffffffffffffffff16815260200190815260200160002081905550505050565b6000610e958484610741565b90507fffffffffffffffffffffffffffffffffffffffffffffffffffffffffffffffff8114610f0f5781811015610f01576040517f08c379a0000000000000000000000000000000000000000000000000000000008152600401610ef89061163f565b60405180910390fd5b610f0e8484848403610d23565b5b50505050565b600073ffffffffffffffffffffffffffffffffffffffff168373ffffffffffffffffffffffffffffffffffffffff161415610f85576040517f08c379a0000000000000000000000000000000000000000000000000000000008152600401610f7c906116df565b60405180910390fd5b600073ffffffffffffffffffffffffffffffffffffffff168273ffffffffffffffffffffffffffffffffffffffff161415610ff5576040517f08c379a0000000000000000000000000000000000000000000000000000000008152600401610fec906115df565b60405180910390fd5b60008060008573ffffffffffffffffffffffffffffffffffffffff1673ffffffffffffffffffffffffffffffffffffffff1681526020019081526020016000205490508181101561107b576040517f08c379a00000000000000000000000000000000000000000000000000000000081526004016110729061165f565b60405180910390fd5b8181036000808673ffffffffffffffffffffffffffffffffffffffff1673ffffffffffffffffffffffffffffffffffffffff16815260200190815260200160002081905550816000808573ffffffffffffffffffffffffffffffffffffffff1673ffffffffffffffffffffffffffffffffffffffff1681526020019081526020016000206000828254019250508190555050505050565b82805461111e906118f4565b90600052602060002090601f0160209004810192826111405760008555611187565b82601f1061115957805160ff1916838001178555611187565b82800160010185558215611187579182015b8281111561118657825182559160200191906001019061116b565b5b5090506111949190611198565b5090565b5b808211156111b1576000816000905550600101611199565b5090565b60006111c86111c3846117ba565b611795565b9050828152602081018484840111156111e4576111e36119e9565b5b6111ef8482856118b2565b509392505050565b60008135905061120681611d25565b92915050565b600082601f830112611221576112206119e4565b5b81356112318482602086016111b5565b91505092915050565b60008135905061124981611d3c565b92915050565b600060208284031215611265576112646119f3565b5b6000611273848285016111f7565b91505092915050565b60008060408385031215611293576112926119f3565b5b60006112a1858286016111f7565b92505060206112b2858286016111f7565b9150509250929050565b6000806000606084860312156112d5576112d46119f3565b5b60006112e3868287016111f7565b93505060206112f4868287016111f7565b92505060406113058682870161123a565b9150509250925092565b60008060408385031215611326576113256119f3565b5b6000611334858286016111f7565b92505060206113458582860161123a565b9150509250929050565b600060208284031215611365576113646119f3565b5b600082013567ffffffffffffffff811115611383576113826119ee565b5b61138f8482850161120c565b91505092915050565b6113a18161186f565b82525050565b60006113b2826117eb565b6113bc81856117f6565b93506113cc8185602086016118c1565b6113d5816119f8565b840191505092915050565b60006113ed6023836117f6565b91506113f882611a09565b604082019050919050565b60006114106022836117f6565b915061141b82611a58565b604082019050919050565b60006114336022836117f6565b915061143e82611aa7565b604082019050919050565b6000611456601d836117f6565b915061146182611af6565b602082019050919050565b60006114796026836117f6565b915061148482611b1f565b604082019050919050565b600061149c600d836117f6565b91506114a782611b6e565b602082019050919050565b60006114bf6021836117f6565b91506114ca82611b97565b604082019050919050565b60006114e26014836117f6565b91506114ed82611be6565b602082019050919050565b60006115056025836117f6565b915061151082611c0f565b604082019050919050565b60006115286024836117f6565b915061153382611c5e565b604082019050919050565b600061154b6025836117f6565b915061155682611cad565b604082019050919050565b600061156e601f836117f6565b915061157982611cfc565b602082019050919050565b61158d8161189b565b82525050565b61159c816118a5565b82525050565b60006020820190506115b76000830184611398565b92915050565b600060208201905081810360008301526115d781846113a7565b905092915050565b600060208201905081810360008301526115f8816113e0565b9050919050565b6000602082019050818103600083015261161881611403565b9050919050565b6000602082019050818103600083015261163881611426565b9050919050565b6000602082019050818103600083015261165881611449565b9050919050565b600060208201905081810360008301526116788161146c565b9050919050565b600060208201905081810360008301526116988161148f565b9050919050565b600060208201905081810360008301526116b8816114b2565b9050919050565b600060208201905081810360008301526116d8816114d5565b9050919050565b600060208201905081810360008301526116f8816114f8565b9050919050565b600060208201905081810360008301526117188161151b565b9050919050565b600060208201905081810360008301526117388161153e565b9050919050565b6000602082019050818103600083015261175881611561565b9050919050565b60006020820190506117746000830184611584565b92915050565b600060208201905061178f6000830184611593565b92915050565b600061179f6117b0565b90506117ab8282611926565b919050565b6000604051905090565b600067ffffffffffffffff8211156117d5576117d46119b5565b5b6117de826119f8565b9050602081019050919050565b600081519050919050565b600082825260208201905092915050565b60006118128261189b565b915061181d8361189b565b9250827fffffffffffffffffffffffffffffffffffffffffffffffffffffffffffffffff0382111561185257611851611957565b5b828201905092915050565b60006118688261187b565b9050919050565b60008115159050919050565b600073ffffffffffffffffffffffffffffffffffffffff82169050919050565b6000819050919050565b600060ff82169050919050565b82818337600083830152505050565b60005b838110156118df5780820151818401526020810190506118c4565b838111156118ee576000848401525b50505050565b6000600282049050600182168061190c57607f821691505b602082108114156119205761191f611986565b5b50919050565b61192f826119f8565b810181811067ffffffffffffffff8211171561194e5761194d6119b5565b5b80604052505050565b7f4e487b7100000000000000000000000000000000000000000000000000000000600052601160045260246000fd5b7f4e487b7100000000000000000000000000000000000000000000000000000000600052602260045260246000fd5b7f4e487b7100000000000000000000000000000000000000000000000000000000600052604160045260246000fd5b600080fd5b600080fd5b600080fd5b600080fd5b6000601f19601f8301169050919050565b7f45524332303a207472616e7366657220746f20746865207a65726f206164647260008201527f6573730000000000000000000000000000000000000000000000000000000000602082015250565b7f45524332303a206275726e20616d6f756e7420657863656564732062616c616e60008201527f6365000000000000000000000000000000000000000000000000000000000000602082015250565b7f45524332303a20617070726f766520746f20746865207a65726f20616464726560008201527f7373000000000000000000000000000000000000000000000000000000000000602082015250565b7f45524332303a20696e73756666696369656e7420616c6c6f77616e6365000000600082015250565b7f45524332303a207472616e7366657220616d6f756e742065786365656473206260008201527f616c616e63650000000000000000000000000000000000000000000000000000602082015250565b7f496e76616c6964204f6e77657200000000000000000000000000000000000000600082015250565b7f45524332303a206275726e2066726f6d20746865207a65726f2061646472657360008201527f7300000000000000000000000000000000000000000000000000000000000000602082015250565b7f496e73756666696369656e742042616c616e6365000000000000000000000000600082015250565b7f45524332303a207472616e736665722066726f6d20746865207a65726f20616460008201527f6472657373000000000000000000000000000000000000000000000000000000602082015250565b7f45524332303a20617070726f76652066726f6d20746865207a65726f2061646460008201527f7265737300000000000000000000000000000000000000000000000000000000602082015250565b7f45524332303a2064656372656173656420616c6c6f77616e63652062656c6f7760008201527f207a65726f000000000000000000000000000000000000000000000000000000602082015250565b7f45524332303a206d696e7420746f20746865207a65726f206164647265737300600082015250565b611d2e8161185d565b8114611d3957600080fd5b50565b611d458161189b565b8114611d5057600080fd5b5056fea2646970667358221220306b772f3b4426431f91475e4020cece8647709ca5d46573cfcf7f8eb4d1059364736f6c63430008060033",
  "linkReferences": {},
  "deployedLinkReferences": {}
}